S0090000322E73726563E9
S11300000C9434000C9451000C9451000C94510045
S11300100C9451000C9451000C9451000C94510018
S11300200C9451000C9451000C9451000C94510008
S11300300C9451000C9451000C9451000C945100F8
S11300400C9451000C9451000C9451000C945100E8
S11300500C9451000C9451000C9451000C945100D8
S11300600C9451000C94510011241FBECFEFD8E022
S1130070DEBFCDBF11E0A0E0B1E0E6E7F1E002C0F1
S113008005900D92A631B107D9F721E0A6E1B1E0C0
S113009001C01D92A731B207E1F70E9482000C94BF
S11300A0B9000C9400001092C50087E68093C40048
S11300B0E1ECF0E080818861808386E08093C20077
S11300C008959091C00095FFFCCF8093C6000895D9
S11300D00F931F93CF938C01C0E003C00E94610073
S11300E0CF5FF801EC0FF11D80818111F7CFCF9123
S11300F01F910F9108958091C0008823E4F78091A7
S1130100C600089584B1816084B90E9453000E949E
S11301107B0080931601893761F485B1816085B9CC
S113012080E091E00E94680082E191E00E94680012
S1130130EECF8E3661F485B18E7F85B980E091E093
S11301400E9468008DE091E00E946800E0CF0E9468
S1130150610085B1816085B92FEF83ED90E3215073
S113016080409040E1F700C0000085B18E7F85B9E2
S1090170CECFF894FFCF8E
S11301764C4544205374617475733A0A004F4646DD
S10901860A004F4E0A00BE
S9030000FC
